:100B090047414D45204F5645522100000001F8014B
:100B1900FC01FF01F801FC07FF0FFF1FFF1FFC0F7E
:100B2900E007C006C004C004C00C18000001800121
:100B39008001812181218121C131C33FCF3FCE0174
:100B49008001800180018001800180000000000097
:100B5900000008001C003E187F3FFF3FFF187E0081
:0B0B69001C0000000000000000000065
:100D2100010F00010C00011600010800011700026B
:100D31000A0000020D00320109140610FF0001FF34
:050D4100000101180093
:0A0CF700C2A18FB0D2A27F017E00DF
:100D0100E4FDFCC3ED9FEC9E5015E4FBFA0BBB0028
:0F0D1100010AEB64704A70F50DBD00010C80E41F
:010D200022B0
:0B0D8E00C2A0120CF7C2A20F020D0160
:0A0D6800120D8E7F20120D727F2005
:0B0D7200D2A0120CF7C2A20F020D016C
:060CCC008B238A24892518
:100CD200E4F526F527AB23AA24A9258527828526B4
:100CE20083120A1AFF600D120D720527E52770E5BF
:040CF200052680E172
:010CF60022DB
:100C72008F1D8D1E8B1F8A208921E51D7008E51EA0
:100C8200540F4480800BE51DB4010AE51E540F4445
:0E0C920090FF120D8EAB1FAA20A921020CCCE0
:100D4700D2A3C2A57F147E00120D01D2A57F301257
:100D57000D8E7F0C120D8E7F06120D8E7F01020DF8
:010D67008EFD
:100D7D00D285C282208505D2827F0122D2827F0058
:010D8D002243
:100900007F40120D8EE4F51DF51E7414251EF58230
:10091000740B351DF583E493FF120D72051EE51E61
:100920007002051DC39420E51D6480948040DB7F28
:1009300050120D8EE4F51DF51E7434251EF58274DB
:100940000B351DF583E493FF120D72051EE51E7035
:1009500002051DC39420E51D6480948040DB7F6008
:10096000120D8EE4F51DF51E7454251EF582740BD0
:10097000351DF583E493FF120D72051EE51E70020E
:0D098000051DC39420E51D6480948040DBBC
:01098D002247
:100A9C00D3E518648094804003151822E4FFFEEF20
:100AAC0075F003A42410F8E6C3648094805042EFE0
:100ABC0075F003A42410F87607E517B40118EF7548
:100ACC00F003A42411F87601EF75F003A42412F8B6
:100ADC00E4F6F5178017EF75F003A42411F8E4F68B
:100AEC00EF75F003A42412F876017517017518033D
:0C0AFC00220FBF00010EEF64024E70A339
:010B080022CA
:100B7400900000AF82EF75F003A42410F8E6FFC3E1
:100B840064809480404AAE82EE75F003A42412F887
:100B9400E6B401047E9080027E80EE2FFF120D8E5B
:100BA400E4FF120D72AF82EF75F003A42411F8E68E
:100BB40070047F0280027F04120D72AF82EF75F021
:100BC40003A42410F8E6C3648094875003120D6BC9
:090BD400A3E58264024583709AD6
:010BDD0022F5
:100C2D00900000AF82EF75F003A42410F8E6C364C2
:100C3D008094804026EF75F003A42410F816E6C3C7
:100C4D00648094805015EF75F003A42412F8E6B477
:100C5D0001047F9080027F80120D68A3E5826402FB
:040C6D00458370BF8C
:010C71002260
:100CA000D3EF648094807F90400A120D687F801299
:100CB0000D8E800D120D687F90120D8EE4FF120DC7
:0C0CC00072E4FF120D72E4FF120D7222AC
:100BDE00AE0AAF0B7C007D64120A477C007D0A12C0
:100BEE000A47ED2430F51DAE0AAF0B7C007D0A12CC
:100BFE000A477C007D0A120A47ED2430F51EAE0A24
:100C0E00AF0B7C007D0A120A47ED2430F51FE4F588
:0F0C1E00207F85120D8E7B007A00791D020CCC91
:10080000120D47120900E4FF120CA00508E519B407
:10081000011AE516B40115D3E50B9400E50A94001E
:100820004012E50B150B700C150A8008050BE50B43
:100830007002050AC3E50B950EE50A950D4012E519
:1008400009A2E713F5097432250EF50EE4350DF50E
:100850000DE519B4010DE5167009E50F7005750F6A
:1008600001F50C851916120A9C120C2DE50F601A61
:100870007F01120CA0E4F51A050CD3E50C648094FA
:1008800084400FE4F50FF50C8008E4FF120CA0750E
:100890001A01120B74120BDEE5107006E512651AD0
:1008A0006009E5137020E515B51A1B7FC87E00129C
:1008B0000D017F01120D8E7BFF7A0B79097D03E418
:1008C000FF120C7280FEE4F519F51BF51CAF09EF61
:1008D0003395E0FEC3E51C9FEE6480F8E51B648061
:1008E00098400302080B120D7DBF01037519017FAB
:1008F0000A7E00120D01051CE51C70D1051B80CD80
:0300000002098E64
:0C098E00787FE4F6D8FD7581270209D5BA
:100A1A00BB010CE58229F582E5833AF583E0225091
:100A2A0006E92582F8E622BBFE06E92582F8E222DB
:0D0A3A00E58229F582E5833AF583E49322F5
:100A4700BC000BBE0029EF8DF084FFADF022E4CC93
:100A5700F875F008EF2FFFEE33FEEC33FCEE9DEC5C
:100A6700984005FCEE9DFE0FD5F0E9E4CEFD22EDA2
:100A7700F8F5F0EE8420D21CFEADF075F008EF2FEC
:100A8700FFED33FD4007985006D5F0F222C398FDDD
:050A97000FD5F0EA227A
:10099A00020800E493A3F8E493A34003F68001F26B
:1009AA0008DFF48029E493A3F85407240CC8C3335E
:1009BA00C4540F4420C8834004F456800146F6DF2D
:1009CA00E4800B0102040810204080900D21E47E8F
:1009DA00019360BCA3FF543F30E509541FFEE49322
:1009EA00A360010ECF54C025E060A840B8E493A3E9
:1009FA00FAE493A3F8E493A3C8C582C8CAC583CA14
:100A0A00F0A3C8C582C8CAC583CADFE9DEE780BECB
:010D460000AC
:00000001FF
