:1009630003C007E00FF01BD81FF81BD80FF00FF0E0
:100973000FF00FF01FF81BD81FF80FF007E003C0AC
:1009830003C007E00FF01FF81FF81FF80FF00FF078
:100993000FF00FF01FF81FF81FF80FF007E003C068
:1009A300FFFFFFFFFFFFFFFF00000000000000004C
:1009B300FFFFFFFFFFFFFFFF00000000000000003C
:1009C3000000000000000000000000000000000024
:1009D3000000000000000000000000000000000014
:060B35000112000113147F
:0A0A8100C2A18FB0D2A27F017E0057
:100A8B00E4FDFCC3ED9FEC9E5015E4FBFA0BBB00A1
:0F0A9B00010AEB64704A70F50DBD00010C80E498
:010AAA002229
:030B28004480FF07
:0A0B2B00C2A0120A81C2A2020A8BC6
:0E0AEE00FEE5102FF582E50F3EF583E493FF41
:0A0AFC00D2A0120A81C2A2020A8BE6
:100A52007F34120B2BE4F9E9120B287F80120B2B47
:100A6200E4F50DE4FF120AFCE4FF120AFC050DE5B1
:0F0A72000DC3941040ED09B920DD7F36020B2B28
:100ACD00D2A3C2A57F147E00120A8BD2A57F30124D
:100ADD000B2B7F0C120B2B7F06120B2B7F01020BA6
:010AED002BDD
:100B0600D286C282208605D2827F0122D2827F00CF
:010B160022BC
:100B1700D284C282208405D2827F0122D2827F00C2
:010B270022AB
:0409E3007A097BC34F
:0809E7008F0D8D0E8A0F8B109D
:0709EF007F36120B2BE4F927
:1009F600E50E29F511D3648094BF504FC3E5116409
:100A06008094A0E5115009120B28E50D4480800C56
:100A160024E04480FF120B2BE50D4488FF120B2BBC
:100A2600E9FF3395E0FEEF25E0FFEE33120AEEE92B
:100A3600FF3395E0FEEF25E0FFEE33FEEF2401FFE6
:050A4600E43E120AEE7F
:060A4B0009E9641070A52A
:010A51002282
:10080000750803750902E4F50A120ACDE4F50BF543
:100810000CC3E50C9440E50B648094805023AD0C30
:100820007A097BA3E4FF1209E7AD0C7A097BA37F69
:10083000071209E77410250CF50CE4350BF50B8055
:10084000D005127D30AF081209E3AD0AAF091209D5
:10085000E3120B06BF010BD3E508648094814002CC
:100860001508120B17BF010BC3E50864809486506E
:10087000020508050A050AC3E50A648094C0401110
:10088000E4F50AE51275F006120AABAFF0EF04F5D5
:10089000097A097B637D30AF081209E77A097B8307
:1008A000AD0AAF091209E7E509B5081EC3E50A64F8
:1008B0008094A04015D3E50A648094C0500C7FC892
:1008C0007E00120A8B120A5280FEAF13EF3395E0BE
:0708D000FE120A8B02084131
:030000000208D71C
:0C08D700787FE4F6D8FD75811302091E3D
:100AAB00C2D530F707B2D563F0FF05F030E70CB2D3
:100ABB00D5F4048463F0FF05F080018430D502F493
:020ACB00042203
:1008E300020800E493A3F8E493A34003F68001F223
:1008F30008DFF48029E493A3F85407240CC8C33316
:10090300C4540F4420C8834004F456800146F6DFE4
:10091300E4800B0102040810204080900B35E47E34
:10092300019360BCA3FF543F30E509541FFEE493D9
:10093300A360010ECF54C025E060A840B8E493A3A0
:10094300FAE493A3F8E493A3C8C582C8CAC583CACB
:10095300F0A3C8C582C8CAC583CADFE9DEE780BE83
:010B3B0000B9
:00000001FF
