:0D0D6000200047414D45204F5645522100CF
:100BC700011D00011E00012E000108000125000281
:100BD700130000022F00320112140826040A041F12
:100BE70004040A110809040515171C040404081550
:100BF700000102121F000000061FFF0001FF000195
:030C0700011100D8
:100C0B00C291D2927F017E00120C2CC2920F120C59
:100C1B002CE9C454F0FFE590540F4FF590D2927F1E
:010C2B0001C7
:100C2C00E4FDFCC3ED9FEC9E5015E4FBFA0BBB00FE
:0F0C3C00010AEB64704A70F50DBD00010C80E4F5
:010C4B002286
:090CF2007FC87E00120C2C7F016A
:100CFB00A907E954F0FFE590540F4FF590C29312FA
:090D0B000C0BC2927F05020C2CB6
:060D1400AF822FF8E6FF9C
:100D1A00A907E954F0FFE590540F4FF590D29312CA
:090D2A000C0BC2927F05020C2C97
:060C7A008B3B8A3C893D22
:100C8000E4F53EF53FAB3BAA3CA93D853F82853E5E
:100C90008312098FFF600D120D1A053FE53F70E5C5
:040CA000053E80E1AC
:010CA400222D
:100C4C008F358D368B378A388939E5357008E5361E
:100C5C00540F4480800BE535B4010AE536540F443B
:0E0C6C00C0FF120CFBAB37AA38A939020C7A74
:100CCD007F147E00120C2C7F02120CFB7F28120C5D
:100CDD00FB7F0C120CFB7F06120CFB7F01120CFB31
:050CED007F80020CFBFA
:100D5000D285C2822085062085037F01227F002262
:100B7E007F40120CFB9000007426120D14A3E58228
:100B8E006408458370F27F48120CFBE4F583F5820E
:100B9E007409120D14A3E5826408458370F27F5028
:100BAE00120CFBE4F583F582AF827415120D16A3B9
:080BBE00E5826408458370F034
:010BC600220C
:100A1100D3E511648094804003151122E4FFFEEFB9
:100A210075F003A4241FF8E6C3648094805042EF5C
:100A310075F003A4241FF8760FE525B40118EF75AE
:100A4100F003A42420F87601EF75F003A42421F823
:100A5100E4F6F5258017EF75F003A42420F8E4F6F9
:100A6100EF75F003A42421F87601752501751105B0
:0C0A7100220FBF00010EEF64024E70A3C4
:010A7D002256
:100A7E00900000AF82EF75F003A4241FF8E6FFC3C9
:100A8E00648094804047AE82EE75F003A42421F872
:100A9E00E6B401047EC080027E80EE2FFF120CFBB6
:100AAE00AF82EF75F003A42420F8E670047F018076
:100ABE00027F02120D1AAF82EF75F003A4241FF805
:100ACE00E6C36480948F50057F20120D1AA3E58231
:060ADE0064024583709DD7
:010AE40022EF
:100B3400900000AF82EF75F003A4241FF8E6C364AD
:100B4400809480402BEF75F003A4241FF816E6C3AD
:100B540064809480501AEF75F003A42421F8E6B45D
:100B640001047FC080027F80120CFB7F20120D1ACB
:090B7400A3E5826402458370BA16
:010B7D002255
:100CA500D3EF648094807BFF7A0D7960E4FD400981
:100CB5007F01120C4C7F808006FF120C4C7FC01206
:080CC5000CFBE4FF120D1A22E2
:100AE500AE13AF147C007D641209BC7C007D0A1234
:100AF50009BCED2430F535AE13AF147C007D0A1228
:100B050009BC7C007D0A1209BCED2430F536AE1314
:100B1500AF147C007D0A1209BCED2430F537E4F5ED
:0F0B2500387F8A120CFB7B007A007935020C7A3C
:100D3300D285C2822085132082107F147E00120C7C
:0D0D43002C2085062082037F01227F0022E4
:10080000E4F531120CCD120B7E120D33EF60FA12AB
:100810000CF2E4FF120CA50508E531B4011AE52E2F
:10082000B40115D3E5149400E51394004012E514C7
:100830001514700C151380080514E51470020513C7
:10084000C3E5149530E513952F4012E512A2E71386
:10085000F51274322530F530E4352FF52FE531B43B
:10086000010DE52E7009E51D7005751D01F51E854C
:10087000312E120A11120B34E51D601A7F01120C81
:10088000A5E4F532051ED3E51E64809484400FE490
:10089000F51DF51E8008E4FF120CA5753201120A41
:1008A0007E120AE5E51F7006E52165326009E52242
:1008B0007017E524B53212120CF27BFF7A0D7962C3
:1008C0007D03E4FF120C4C80FEE4F531F533F53482
:1008D000AF12EF3395E0FEC3E5349FEE6480F8E598
:1008E000336480984003020817120D50BF0103754E
:1008F00031017F0A7E00120C2C0534E53470D105DD
:030900003380CD74
:03000000020903EF
:0C090300787FE4F6D8FD75813F02094AB8
:10098F00BB010CE58229F582E5833AF583E022501D
:10099F0006E92582F8E622BBFE06E92582F8E22267
:0D09AF00E58229F582E5833AF583E4932281
:1009BC00BC000BBE0029EF8DF084FFADF022E4CC1F
:1009CC00F875F008EF2FFFEE33FEEC33FCEE9DECE8
:1009DC00984005FCEE9DFE0FD5F0E9E4CEFD22ED2E
:1009EC00F8F5F0EE8420D21CFEADF075F008EF2F78
:1009FC00FFED33FD4007985006D5F0F222C398FD69
:050A0C000FD5F0EA2205
:10090F00020800E493A3F8E493A34003F68001F2F6
:10091F0008DFF48029E493A3F85407240CC8C333E9
:10092F00C4540F4420C8834004F456800146F6DFB8
:10093F00E4800B0102040810204080900BC7E47E76
:10094F00019360BCA3FF543F30E509541FFEE493AD
:10095F00A360010ECF54C025E060A840B8E493A374
:10096F00FAE493A3F8E493A3C8C582C8CAC583CA9F
:10097F00F0A3C8C582C8CAC583CADFE9DEE780BE57
:010C0A0000E9
:00000001FF
